{
  "contractName": "LimeCrowdsale",
  "abi": [
    {
      "constant": true,
      "inputs": [],
      "name": "wallet",
      "outputs": [
        {
          "name": "",
          "type": "address"
        }
      ],
      "payable": false,
      "stateMutability": "view",
      "type": "function"
    },
    {
      "constant": true,
      "inputs": [],
      "name": "totalWeiRaised",
      "outputs": [
        {
          "name": "",
          "type": "uint256"
        }
      ],
      "payable": false,
      "stateMutability": "view",
      "type": "function"
    },
    {
      "constant": true,
      "inputs": [],
      "name": "secondPhaseEnd",
      "outputs": [
        {
          "name": "",
          "type": "uint256"
        }
      ],
      "payable": false,
      "stateMutability": "view",
      "type": "function"
    },
    {
      "constant": true,
      "inputs": [],
      "name": "firstPhaseEnd",
      "outputs": [
        {
          "name": "",
          "type": "uint256"
        }
      ],
      "payable": false,
      "stateMutability": "view",
      "type": "function"
    },
    {
      "constant": true,
      "inputs": [],
      "name": "saleStart",
      "outputs": [
        {
          "name": "",
          "type": "uint256"
        }
      ],
      "payable": false,
      "stateMutability": "view",
      "type": "function"
    },
    {
      "constant": true,
      "inputs": [],
      "name": "saleEnd",
      "outputs": [
        {
          "name": "",
          "type": "uint256"
        }
      ],
      "payable": false,
      "stateMutability": "view",
      "type": "function"
    },
    {
      "inputs": [
        {
          "name": "_wallet",
          "type": "address"
        }
      ],
      "payable": false,
      "stateMutability": "nonpayable",
      "type": "constructor"
    },
    {
      "payable": true,
      "stateMutability": "payable",
      "type": "fallback"
    },
    {
      "anonymous": false,
      "inputs": [
        {
          "indexed": false,
          "name": "from",
          "type": "address"
        },
        {
          "indexed": false,
          "name": "to",
          "type": "address"
        },
        {
          "indexed": false,
          "name": "amount",
          "type": "uint256"
        }
      ],
      "name": "TokensBought",
      "type": "event"
    },
    {
      "constant": false,
      "inputs": [],
      "name": "buyTokens",
      "outputs": [
        {
          "name": "",
          "type": "bool"
        }
      ],
      "payable": true,
      "stateMutability": "payable",
      "type": "function"
    },
    {
      "constant": true,
      "inputs": [
        {
          "name": "_weiAmount",
          "type": "uint256"
        }
      ],
      "name": "getTokenAmount",
      "outputs": [
        {
          "name": "",
          "type": "uint256"
        }
      ],
      "payable": false,
      "stateMutability": "view",
      "type": "function"
    }
  ],
  "bytecode": "0x608060405234801561001057600080fd5b5060405160208061261d8339810180604052810190808051906020019092919050505060003073ffffffffffffffffffffffffffffffffffffffff163114151561005957600080fd5b600073ffffffffffffffffffffffffffffffffffffffff168173ffffffffffffffffffffffffffffffffffffffff161415151561009557600080fd5b80600160006101000a81548173ffffffffffffffffffffffffffffffffffffffff021916908373ffffffffffffffffffffffffffffffffffffffff1602179055504260038190555062278d006003540160048190555062093a806003540160058190555062093a806005540160068190555060045461011261017e565b80828152602001915050604051809103906000f080158015610138573d6000803e3d6000fd5b506000806101000a81548173ffffffffffffffffffffffffffffffffffffffff021916908373ffffffffffffffffffffffffffffffffffffffff1602179055505061018e565b604051611e068061081783390190565b61067a8061019d6000396000f30060806040526004361061008e576000357c0100000000000000000000000000000000000000000000000000000000900463ffffffff168063521eb273146100b357806353f4db011461010a57806365b7aaa114610135578063904bad4214610160578063ab0bcc411461018b578063c10b9358146101b6578063c2507ac1146101e1578063d0febe4c14610222575b6100a33460025461024490919063ffffffff16565b6002819055506100b1610260565b005b3480156100bf57600080fd5b506100c86102cb565b604051808273ffffffffffffffffffffffffffffffffffffffff1673ffffffffffffffffffffffffffffffffffffffff16815260200191505060405180910390f35b34801561011657600080fd5b5061011f6102f1565b6040518082815260200191505060405180910390f35b34801561014157600080fd5b5061014a6102f7565b6040518082815260200191505060405180910390f35b34801561016c57600080fd5b506101756102fd565b6040518082815260200191505060405180910390f35b34801561019757600080fd5b506101a0610303565b6040518082815260200191505060405180910390f35b3480156101c257600080fd5b506101cb610309565b6040518082815260200191505060405180910390f35b3480156101ed57600080fd5b5061020c6004803603810190808035906020019092919050505061030f565b6040518082815260200191505060405180910390f35b61022a610400565b604051808215151515815260200191505060405180910390f35b6000818301905082811015151561025757fe5b80905092915050565b600160009054906101000a900473ffffffffffffffffffffffffffffffffffffffff1673ffffffffffffffffffffffffffffffffffffffff166108fc349081150290604051600060405180830381858888f193505050501580156102c8573d6000803e3d6000fd5b50565b600160009054906101000a900473ffffffffffffffffffffffffffffffffffffffff1681565b60025481565b60065481565b60055481565b60035481565b60045481565b6000806000806000806000600454421115151561032b57600080fd5b606495506005544211151561035457678ac7230489e8000093506101f4955061012c9450610382565b6005544211801561036757506006544211155b15610381576801a055690d9db80000935060c89550609694505b5b600254841015610390578495505b836002541080156103a45750838860025401115b156103e557838860025401039150600254840392506103de6103c683876105f9565b6103d085896105f9565b61024490919063ffffffff16565b90506103f2565b6103ef88876105f9565b90505b809650505050505050919050565b600080600454421115151561041457600080fd5b6000341415151561042457600080fd5b61042d3461030f565b90506104443460025461024490919063ffffffff16565b6002819055506000809054906101000a900473ffffffffffffffffffffffffffffffffffffffff1673ffffffffffffffffffffffffffffffffffffffff1663a9059cbb33836040518363ffffffff167c0100000000000000000000000000000000000000000000000000000000028152600401808373ffffffffffffffffffffffffffffffffffffffff1673ffffffffffffffffffffffffffffffffffffffff16815260200182815260200192505050602060405180830381600087803b15801561050e57600080fd5b505af1158015610522573d6000803e3d6000fd5b505050506040513d602081101561053857600080fd5b8101908080519060200190929190505050507f76a32dce3ca886d7dda77ccb2d08e47f9cd441cdf4a84beb3a1d74edb7acafc1303334604051808473ffffffffffffffffffffffffffffffffffffffff1673ffffffffffffffffffffffffffffffffffffffff1681526020018373ffffffffffffffffffffffffffffffffffffffff1673ffffffffffffffffffffffffffffffffffffffff168152602001828152602001935050505060405180910390a16105f1610260565b600191505090565b600061060e828461061690919063ffffffff16565b905092915050565b6000808314156106295760009050610648565b818302905081838281151561063a57fe5b0414151561064457fe5b8090505b929150505600a165627a7a72305820ed5f77c6ac837bebf26b13dc77ec7624d155d7f40c308cb73dd67af1e25b35a0002960806040526000600360146101000a81548160ff0219169083151502179055506040805190810160405280601481526020017f4c696d65436861696e204578616d20546f6b656e000000000000000000000000815250600490805190602001906200006c92919062000402565b506040805190810160405280600381526020017f4c4554000000000000000000000000000000000000000000000000000000000081525060059080519060200190620000ba92919062000402565b50348015620000c857600080fd5b5060405160208062001e068339810180604052810190808051906020019092919050505033600360006101000a81548173ffffffffffffffffffffffffffffffffffffffff021916908373ffffffffffffffffffffffffffffffffffffffff16021790555060003073ffffffffffffffffffffffffffffffffffffffff16311415156200015457600080fd5b6200017233620f4240620001dd640100000000026401000000009004565b15156200017e57600080fd5b806006819055503373ffffffffffffffffffffffffffffffffffffffff167f0f6798a560793a54c3bcfe86a93cde1e73087d944c0ea20544137d4121396885620f42406040518082815260200191505060405180910390a250620004b1565b6000600360009054906101000a900473ffffffffffffffffffffffffffffffffffffffff1673ffffffffffffffffffffffffffffffffffffffff163373ffffffffffffffffffffffffffffffffffffffff161415156200023c57600080fd5b600360149054906101000a900460ff161515156200025957600080fd5b6200027e82600154620003e564010000000002620016c5179091906401000000009004565b600181905550620002e5826000808673ffffffffffffffffffffffffffffffffffffffff1673ffffffffffffffffffffffffffffffffffffffff16815260200190815260200160002054620003e564010000000002620016c5179091906401000000009004565b6000808573ffffffffffffffffffffffffffffffffffffffff1673ffffffffffffffffffffffffffffffffffffffff168152602001908152602001600020819055508273ffffffffffffffffffffffffffffffffffffffff167f0f6798a560793a54c3bcfe86a93cde1e73087d944c0ea20544137d4121396885836040518082815260200191505060405180910390a28273ffffffffffffffffffffffffffffffffffffffff16600073ffffffffffffffffffffffffffffffffffffffff167fddf252ad1be2c89b69c2b068fc378daa952ba7f163c4a11628f55a4df523b3ef846040518082815260200191505060405180910390a36001905092915050565b60008183019050828110151515620003f957fe5b80905092915050565b828054600181600116156101000203166002900490600052602060002090601f016020900481019282601f106200044557805160ff191683800117855562000476565b8280016001018555821562000476579182015b828111156200047557825182559160200191906001019062000458565b5b50905062000485919062000489565b5090565b620004ae91905b80821115620004aa57600081600090555060010162000490565b5090565b90565b61194580620004c16000396000f3006080604052600436106100f1576000357c0100000000000000000000000000000000000000000000000000000000900463ffffffff16806305d2035b146100f657806306fdde0314610125578063095ea7b3146101b557806318160ddd1461021a57806323b872dd14610245578063313ce567146102ca57806340c10f19146102fb578063661884631461036057806370a08231146103c55780637d64bcb41461041c5780638da5cb5b1461044b57806395d89b41146104a2578063a9059cbb14610532578063d73dd62314610597578063dd62ed3e146105fc578063de5f09e914610673578063f2fde38b1461069e575b600080fd5b34801561010257600080fd5b5061010b6106e1565b604051808215151515815260200191505060405180910390f35b34801561013157600080fd5b5061013a6106f4565b6040518080602001828103825283818151815260200191508051906020019080838360005b8381101561017a57808201518184015260208101905061015f565b50505050905090810190601f1680156101a75780820380516001836020036101000a031916815260200191505b509250505060405180910390f35b3480156101c157600080fd5b50610200600480360381019080803573ffffffffffffffffffffffffffffffffffffffff16906020019092919080359060200190929190505050610792565b604051808215151515815260200191505060405180910390f35b34801561022657600080fd5b5061022f610884565b6040518082815260200191505060405180910390f35b34801561025157600080fd5b506102b0600480360381019080803573ffffffffffffffffffffffffffffffffffffffff169060200190929190803573ffffffffffffffffffffffffffffffffffffffff1690602001909291908035906020019092919050505061088e565b604051808215151515815260200191505060405180910390f35b3480156102d657600080fd5b506102df6108b5565b604051808260ff1660ff16815260200191505060405180910390f35b34801561030757600080fd5b50610346600480360381019080803573ffffffffffffffffffffffffffffffffffffffff169060200190929190803590602001909291905050506108ba565b604051808215151515815260200191505060405180910390f35b34801561036c57600080fd5b506103ab600480360381019080803573ffffffffffffffffffffffffffffffffffffffff16906020019092919080359060200190929190505050610aa0565b604051808215151515815260200191505060405180910390f35b3480156103d157600080fd5b50610406600480360381019080803573ffffffffffffffffffffffffffffffffffffffff169060200190929190505050610d31565b6040518082815260200191505060405180910390f35b34801561042857600080fd5b50610431610d79565b604051808215151515815260200191505060405180910390f35b34801561045757600080fd5b50610460610e41565b604051808273ffffffffffffffffffffffffffffffffffffffff1673ffffffffffffffffffffffffffffffffffffffff16815260200191505060405180910390f35b3480156104ae57600080fd5b506104b7610e67565b6040518080602001828103825283818151815260200191508051906020019080838360005b838110156104f75780820151818401526020810190506104dc565b50505050905090810190601f1680156105245780820380516001836020036101000a031916815260200191505b509250505060405180910390f35b34801561053e57600080fd5b5061057d600480360381019080803573ffffffffffffffffffffffffffffffffffffffff16906020019092919080359060200190929190505050610f05565b604051808215151515815260200191505060405180910390f35b3480156105a357600080fd5b506105e2600480360381019080803573ffffffffffffffffffffffffffffffffffffffff16906020019092919080359060200190929190505050610f2a565b604051808215151515815260200191505060405180910390f35b34801561060857600080fd5b5061065d600480360381019080803573ffffffffffffffffffffffffffffffffffffffff169060200190929190803573ffffffffffffffffffffffffffffffffffffffff169060200190929190505050611126565b6040518082815260200191505060405180910390f35b34801561067f57600080fd5b506106886111ad565b6040518082815260200191505060405180910390f35b3480156106aa57600080fd5b506106df600480360381019080803573ffffffffffffffffffffffffffffffffffffffff1690602001909291905050506111b3565b005b600360149054906101000a900460ff1681565b60048054600181600116156101000203166002900480601f01602080910402602001604051908101604052809291908181526020018280546001816001161561010002031660029004801561078a5780601f1061075f5761010080835404028352916020019161078a565b820191906000526020600020905b81548152906001019060200180831161076d57829003601f168201915b505050505081565b600081600260003373ffffffffffffffffffffffffffffffffffffffff1673ffffffffffffffffffffffffffffffffffffffff16815260200190815260200160002060008573ffffffffffffffffffffffffffffffffffffffff1673ffffffffffffffffffffffffffffffffffffffff168152602001908152602001600020819055508273ffffffffffffffffffffffffffffffffffffffff163373ffffffffffffffffffffffffffffffffffffffff167f8c5be1e5ebec7d5bd14f71427d1e84f3dd0314c0f7b2291e5b200ac8c7c3b925846040518082815260200191505060405180910390a36001905092915050565b6000600154905090565b600060065442101515156108a157600080fd5b6108ac84848461130b565b90509392505050565b601281565b6000600360009054906101000a900473ffffffffffffffffffffffffffffffffffffffff1673ffffffffffffffffffffffffffffffffffffffff163373ffffffffffffffffffffffffffffffffffffffff1614151561091857600080fd5b600360149054906101000a900460ff1615151561093457600080fd5b610949826001546116c590919063ffffffff16565b6001819055506109a0826000808673ffffffffffffffffffffffffffffffffffffffff1673ffffffffffffffffffffffffffffffffffffffff168152602001908152602001600020546116c590919063ffffffff16565b6000808573ffffffffffffffffffffffffffffffffffffffff1673ffffffffffffffffffffffffffffffffffffffff168152602001908152602001600020819055508273ffffffffffffffffffffffffffffffffffffffff167f0f6798a560793a54c3bcfe86a93cde1e73087d944c0ea20544137d4121396885836040518082815260200191505060405180910390a28273ffffffffffffffffffffffffffffffffffffffff16600073ffffffffffffffffffffffffffffffffffffffff167fddf252ad1be2c89b69c2b068fc378daa952ba7f163c4a11628f55a4df523b3ef846040518082815260200191505060405180910390a36001905092915050565b600080600260003373ffffffffffffffffffffffffffffffffffffffff1673ffffffffffffffffffffffffffffffffffffffff16815260200190815260200160002060008573ffffffffffffffffffffffffffffffffffffffff1673ffffffffffffffffffffffffffffffffffffffff16815260200190815260200160002054905080831115610bb1576000600260003373ffffffffffffffffffffffffffffffffffffffff1673ffffffffffffffffffffffffffffffffffffffff16815260200190815260200160002060008673ffffffffffffffffffffffffffffffffffffffff1673ffffffffffffffffffffffffffffffffffffffff16815260200190815260200160002081905550610c45565b610bc483826116e190919063ffffffff16565b600260003373ffffffffffffffffffffffffffffffffffffffff1673ffffffffffffffffffffffffffffffffffffffff16815260200190815260200160002060008673ffffffffffffffffffffffffffffffffffffffff1673ffffffffffffffffffffffffffffffffffffffff168152602001908152602001600020819055505b8373ffffffffffffffffffffffffffffffffffffffff163373ffffffffffffffffffffffffffffffffffffffff167f8c5be1e5ebec7d5bd14f71427d1e84f3dd0314c0f7b2291e5b200ac8c7c3b925600260003373ffffffffffffffffffffffffffffffffffffffff1673ffffffffffffffffffffffffffffffffffffffff16815260200190815260200160002060008873ffffffffffffffffffffffffffffffffffffffff1673ffffffffffffffffffffffffffffffffffffffff168152602001908152602001600020546040518082815260200191505060405180910390a3600191505092915050565b60008060008373ffffffffffffffffffffffffffffffffffffffff1673ffffffffffffffffffffffffffffffffffffffff168152602001908152602001600020549050919050565b6000600360009054906101000a900473ffffffffffffffffffffffffffffffffffffffff1673ffffffffffffffffffffffffffffffffffffffff163373ffffffffffffffffffffffffffffffffffffffff16141515610dd757600080fd5b600360149054906101000a900460ff16151515610df357600080fd5b6001600360146101000a81548160ff0219169083151502179055507fae5184fba832cb2b1f702aca6117b8d265eaf03ad33eb133f19dde0f5920fa0860405160405180910390a16001905090565b600360009054906101000a900473ffffffffffffffffffffffffffffffffffffffff1681565b60058054600181600116156101000203166002900480601f016020809104026020016040519081016040528092919081815260200182805460018160011615610100020316600290048015610efd5780601f10610ed257610100808354040283529160200191610efd565b820191906000526020600020905b815481529060010190602001808311610ee057829003601f168201915b505050505081565b60006006544210151515610f1857600080fd5b610f2283836116fa565b905092915050565b6000610fbb82600260003373ffffffffffffffffffffffffffffffffffffffff1673ffffffffffffffffffffffffffffffffffffffff16815260200190815260200160002060008673ffffffffffffffffffffffffffffffffffffffff1673ffffffffffffffffffffffffffffffffffffffff168152602001908152602001600020546116c590919063ffffffff16565b600260003373ffffffffffffffffffffffffffffffffffffffff1673ffffffffffffffffffffffffffffffffffffffff16815260200190815260200160002060008573ffffffffffffffffffffffffffffffffffffffff1673ffffffffffffffffffffffffffffffffffffffff168152602001908152602001600020819055508273ffffffffffffffffffffffffffffffffffffffff163373ffffffffffffffffffffffffffffffffffffffff167f8c5be1e5ebec7d5bd14f71427d1e84f3dd0314c0f7b2291e5b200ac8c7c3b925600260003373ffffffffffffffffffffffffffffffffffffffff1673ffffffffffffffffffffffffffffffffffffffff16815260200190815260200160002060008773ffffffffffffffffffffffffffffffffffffffff1673ffffffffffffffffffffffffffffffffffffffff168152602001908152602001600020546040518082815260200191505060405180910390a36001905092915050565b6000600260008473ffffffffffffffffffffffffffffffffffffffff1673ffffffffffffffffffffffffffffffffffffffff16815260200190815260200160002060008373ffffffffffffffffffffffffffffffffffffffff1673ffffffffffffffffffffffffffffffffffffffff16815260200190815260200160002054905092915050565b60065481565b600360009054906101000a900473ffffffffffffffffffffffffffffffffffffffff1673ffffffffffffffffffffffffffffffffffffffff163373ffffffffffffffffffffffffffffffffffffffff1614151561120f57600080fd5b600073ffffffffffffffffffffffffffffffffffffffff168173ffffffffffffffffffffffffffffffffffffffff161415151561124b57600080fd5b8073ffffffffffffffffffffffffffffffffffffffff16600360009054906101000a900473ffffffffffffffffffffffffffffffffffffffff1673ffffffffffffffffffffffffffffffffffffffff167f8be0079c531659141344cd1fd0a4f28419497f9722a3daafe3b4186f6b6457e060405160405180910390a380600360006101000a81548173ffffffffffffffffffffffffffffffffffffffff021916908373ffffffffffffffffffffffffffffffffffffffff16021790555050565b60008073ffffffffffffffffffffffffffffffffffffffff168373ffffffffffffffffffffffffffffffffffffffff161415151561134857600080fd5b6000808573ffffffffffffffffffffffffffffffffffffffff1673ffffffffffffffffffffffffffffffffffffffff16815260200190815260200160002054821115151561139557600080fd5b600260008573ffffffffffffffffffffffffffffffffffffffff1673ffffffffffffffffffffffffffffffffffffffff16815260200190815260200160002060003373ffffffffffffffffffffffffffffffffffffffff1673ffffffffffffffffffffffffffffffffffffffff16815260200190815260200160002054821115151561142057600080fd5b611471826000808773ffffffffffffffffffffffffffffffffffffffff1673ffffffffffffffffffffffffffffffffffffffff168152602001908152602001600020546116e190919063ffffffff16565b6000808673ffffffffffffffffffffffffffffffffffffffff1673ffffffffffffffffffffffffffffffffffffffff16815260200190815260200160002081905550611504826000808673ffffffffffffffffffffffffffffffffffffffff1673ffffffffffffffffffffffffffffffffffffffff168152602001908152602001600020546116c590919063ffffffff16565b6000808573ffffffffffffffffffffffffffffffffffffffff1673ffffffffffffffffffffffffffffffffffffffff168152602001908152602001600020819055506115d582600260008773ffffffffffffffffffffffffffffffffffffffff1673ffffffffffffffffffffffffffffffffffffffff16815260200190815260200160002060003373ffffffffffffffffffffffffffffffffffffffff1673ffffffffffffffffffffffffffffffffffffffff168152602001908152602001600020546116e190919063ffffffff16565b600260008673ffffffffffffffffffffffffffffffffffffffff1673ffffffffffffffffffffffffffffffffffffffff16815260200190815260200160002060003373ffffffffffffffffffffffffffffffffffffffff1673ffffffffffffffffffffffffffffffffffffffff168152602001908152602001600020819055508273ffffffffffffffffffffffffffffffffffffffff168473ffffffffffffffffffffffffffffffffffffffff167fddf252ad1be2c89b69c2b068fc378daa952ba7f163c4a11628f55a4df523b3ef846040518082815260200191505060405180910390a3600190509392505050565b600081830190508281101515156116d857fe5b80905092915050565b60008282111515156116ef57fe5b818303905092915050565b60008073ffffffffffffffffffffffffffffffffffffffff168373ffffffffffffffffffffffffffffffffffffffff161415151561173757600080fd5b6000803373ffffffffffffffffffffffffffffffffffffffff1673ffffffffffffffffffffffffffffffffffffffff16815260200190815260200160002054821115151561178457600080fd5b6117d5826000803373ffffffffffffffffffffffffffffffffffffffff1673ffffffffffffffffffffffffffffffffffffffff168152602001908152602001600020546116e190919063ffffffff16565b6000803373ffffffffffffffffffffffffffffffffffffffff1673ffffffffffffffffffffffffffffffffffffffff16815260200190815260200160002081905550611868826000808673ffffffffffffffffffffffffffffffffffffffff1673ffffffffffffffffffffffffffffffffffffffff168152602001908152602001600020546116c590919063ffffffff16565b6000808573ffffffffffffffffffffffffffffffffffffffff1673ffffffffffffffffffffffffffffffffffffffff168152602001908152602001600020819055508273ffffffffffffffffffffffffffffffffffffffff163373ffffffffffffffffffffffffffffffffffffffff167fddf252ad1be2c89b69c2b068fc378daa952ba7f163c4a11628f55a4df523b3ef846040518082815260200191505060405180910390a360019050929150505600a165627a7a72305820fd2e17a3373abc86f8acefc48f96a0885ca9168dd7bffde590c9cb89e88bf4450029",
  "source": "pragma solidity ^0.4.21;\n\nimport '../node_modules/zeppelin-solidity/contracts/math/SafeMath.sol';\nimport './LimeToken.sol';\n\ncontract LimeCrowdsale {\n        using SafeMath for uint256;\n\n\tevent TokensBought(address from, address  to, uint256 amount);\n\n\tLimeToken token;\n\n\taddress public wallet;\n\tuint256 public totalWeiRaised;\n\n\t// start and end timestamps where investments are allowed (both inclusive)\n\tuint256 public saleStart;\n\tuint256 public saleEnd;\n\n\t// end timestamps for the two phases where rates for the investments are changed (both inclusive)\n\tuint256 public firstPhaseEnd;\n\tuint256 public secondPhaseEnd;\n\n\tconstructor (address _wallet) public {\n\t        //contract cannot assume the balance is zero upon creation\n\t\trequire(address(this).balance == 0);\n\t\trequire(_wallet != address(0));\n\n\t\twallet = _wallet;\n\t\t\t\n\t\tsaleStart = now;\n\t\tsaleEnd = saleStart + 30 days;\n\n\t\tfirstPhaseEnd = saleStart + 7 days;\n\t\tsecondPhaseEnd = firstPhaseEnd + 7 days;\n\n\t\ttoken = new LimeToken(saleEnd);\n\t}\n\n        function () external payable {\n\t\ttotalWeiRaised = totalWeiRaised.add(msg.value);\n\t\t_forwardFunds();\n\t}\n\n        modifier beforeSaleEnd() {\n\t\trequire(now <= saleEnd);\n\t\t_;\n\t}\n\n\tfunction buyTokens() public payable beforeSaleEnd returns (bool) {\n\t\trequire(msg.value != 0);\n\n\t\tuint256 tokenAmount = getTokenAmount(msg.value);\n\n\t\ttotalWeiRaised = totalWeiRaised.add(msg.value);\n\n\t\ttoken.transfer(msg.sender, tokenAmount);\n\n\t\temit TokensBought(address(this), msg.sender, msg.value);\n\n\t\t_forwardFunds();\n\n\t\treturn true;\n\t}\n\n        function getTokenAmount(uint256 _weiAmount) public view beforeSaleEnd returns(uint256) {\n\t\tuint256 currentPhaseRate = 100;\n\t\tuint256 nextPhaseRate;\n\t\tuint256 phaseEtherCap;\n\n\t\tuint256 currentPhaseWei;\n\t\tuint256 nextPhaseWei;\n\n\t\tuint256 tokensAmount;\n\n\t\tif(now <= firstPhaseEnd){\n\t\t\tphaseEtherCap = 10 ether;\n\t\t\tcurrentPhaseRate = 500;\n\t\t\tnextPhaseRate = 300;\n\t\t} else if (now > firstPhaseEnd && now <= secondPhaseEnd) {\n\t\t\tphaseEtherCap = 30 ether;\n\t\t\tcurrentPhaseRate = 200;\n\t\t\tnextPhaseRate = 150;\n\t\t}\n\n\t\tif(phaseEtherCap < totalWeiRaised){\n\t\t        currentPhaseRate = nextPhaseRate;\n\t\t}\n\n\t\t// case when wei amount should be split and converted between two phases using different rate for each one\n\t\tif(totalWeiRaised < phaseEtherCap && totalWeiRaised + _weiAmount > phaseEtherCap){\n\t\t\tnextPhaseWei = (totalWeiRaised +  _weiAmount) - phaseEtherCap;\n\t\t\tcurrentPhaseWei = phaseEtherCap - totalWeiRaised;\n\t\t\ttokensAmount = _calculateTokenAmount(currentPhaseWei, currentPhaseRate).add(_calculateTokenAmount(nextPhaseWei, nextPhaseRate));\n\t\t} else {\n\t\t\ttokensAmount = _calculateTokenAmount(_weiAmount, currentPhaseRate);\n\t\t}\n\n\t\treturn tokensAmount;\n\t}\n\n        function _calculateTokenAmount(uint256 _weiAmount, uint256 _rate) private pure returns (uint256) {\n\t        return _weiAmount.mul(_rate);\n\t}\n\n\tfunction _forwardFunds() internal {\n\t\twallet.transfer(msg.value);\n\t}\n}\n",
  "sourcePath": "/home/yoskata/Desktop/contracts_deploy/ICO/contracts/LimeCrowdsale.sol",
  "compiler": {
    "name": "solc",
    "version": "0.4.23+commit.124ca40d.Emscripten.clang"
  },
  "schemaVersion": "2.0.0",
  "updatedAt": "2018-05-09T18:23:03.125Z"
}