{
  "contractName": "LimeCrowdsale",
  "abi": [
    {
      "constant": true,
      "inputs": [],
      "name": "wallet",
      "outputs": [
        {
          "name": "",
          "type": "address"
        }
      ],
      "payable": false,
      "stateMutability": "view",
      "type": "function"
    },
    {
      "constant": true,
      "inputs": [],
      "name": "totalWeiRaised",
      "outputs": [
        {
          "name": "",
          "type": "uint256"
        }
      ],
      "payable": false,
      "stateMutability": "view",
      "type": "function"
    },
    {
      "constant": true,
      "inputs": [],
      "name": "secondPhaseEnd",
      "outputs": [
        {
          "name": "",
          "type": "uint256"
        }
      ],
      "payable": false,
      "stateMutability": "view",
      "type": "function"
    },
    {
      "constant": true,
      "inputs": [],
      "name": "firstPhaseEnd",
      "outputs": [
        {
          "name": "",
          "type": "uint256"
        }
      ],
      "payable": false,
      "stateMutability": "view",
      "type": "function"
    },
    {
      "constant": true,
      "inputs": [],
      "name": "saleStart",
      "outputs": [
        {
          "name": "",
          "type": "uint256"
        }
      ],
      "payable": false,
      "stateMutability": "view",
      "type": "function"
    },
    {
      "constant": true,
      "inputs": [],
      "name": "saleEnd",
      "outputs": [
        {
          "name": "",
          "type": "uint256"
        }
      ],
      "payable": false,
      "stateMutability": "view",
      "type": "function"
    },
    {
      "constant": true,
      "inputs": [],
      "name": "token",
      "outputs": [
        {
          "name": "",
          "type": "address"
        }
      ],
      "payable": false,
      "stateMutability": "view",
      "type": "function"
    },
    {
      "inputs": [
        {
          "name": "_token",
          "type": "address"
        },
        {
          "name": "_wallet",
          "type": "address"
        }
      ],
      "payable": false,
      "stateMutability": "nonpayable",
      "type": "constructor"
    },
    {
      "payable": true,
      "stateMutability": "payable",
      "type": "fallback"
    },
    {
      "anonymous": false,
      "inputs": [
        {
          "indexed": false,
          "name": "from",
          "type": "address"
        },
        {
          "indexed": false,
          "name": "to",
          "type": "address"
        },
        {
          "indexed": false,
          "name": "amount",
          "type": "uint256"
        }
      ],
      "name": "TokensBought",
      "type": "event"
    },
    {
      "constant": false,
      "inputs": [],
      "name": "buyTokens",
      "outputs": [
        {
          "name": "",
          "type": "bool"
        }
      ],
      "payable": true,
      "stateMutability": "payable",
      "type": "function"
    },
    {
      "constant": true,
      "inputs": [
        {
          "name": "_weiAmount",
          "type": "uint256"
        }
      ],
      "name": "getTokenAmount",
      "outputs": [
        {
          "name": "",
          "type": "uint256"
        }
      ],
      "payable": false,
      "stateMutability": "view",
      "type": "function"
    }
  ],
  "bytecode": "0x608060405234801561001057600080fd5b50604051604080610871833981018060405281019080805190602001909291908051906020019092919050505060003073ffffffffffffffffffffffffffffffffffffffff163114151561006357600080fd5b600073ffffffffffffffffffffffffffffffffffffffff168173ffffffffffffffffffffffffffffffffffffffff161415151561009f57600080fd5b80600160006101000a81548173ffffffffffffffffffffffffffffffffffffffff021916908373ffffffffffffffffffffffffffffffffffffffff1602179055504260038190555062278d006003540160048190555062093a806003540160058190555062093a8060055401600681905550816000806101000a81548173ffffffffffffffffffffffffffffffffffffffff021916908373ffffffffffffffffffffffffffffffffffffffff160217905550505061070f806101626000396000f300608060405260043610610099576000357c0100000000000000000000000000000000000000000000000000000000900463ffffffff168063521eb273146100be57806353f4db011461011557806365b7aaa114610140578063904bad421461016b578063ab0bcc4114610196578063c10b9358146101c1578063c2507ac1146101ec578063d0febe4c1461022d578063fc0c546a1461024f575b6100ae346002546102a690919063ffffffff16565b6002819055506100bc6102c2565b005b3480156100ca57600080fd5b506100d361032d565b604051808273ffffffffffffffffffffffffffffffffffffffff1673ffffffffffffffffffffffffffffffffffffffff16815260200191505060405180910390f35b34801561012157600080fd5b5061012a610353565b6040518082815260200191505060405180910390f35b34801561014c57600080fd5b50610155610359565b6040518082815260200191505060405180910390f35b34801561017757600080fd5b5061018061035f565b6040518082815260200191505060405180910390f35b3480156101a257600080fd5b506101ab610365565b6040518082815260200191505060405180910390f35b3480156101cd57600080fd5b506101d661036b565b6040518082815260200191505060405180910390f35b3480156101f857600080fd5b5061021760048036038101908080359060200190929190505050610371565b6040518082815260200191505060405180910390f35b610235610470565b604051808215151515815260200191505060405180910390f35b34801561025b57600080fd5b50610264610669565b604051808273ffffffffffffffffffffffffffffffffffffffff1673ffffffffffffffffffffffffffffffffffffffff16815260200191505060405180910390f35b600081830190508281101515156102b957fe5b80905092915050565b600160009054906101000a900473ffffffffffffffffffffffffffffffffffffffff1673ffffffffffffffffffffffffffffffffffffffff166108fc349081150290604051600060405180830381858888f1935050505015801561032a573d6000803e3d6000fd5b50565b600160009054906101000a900473ffffffffffffffffffffffffffffffffffffffff1681565b60025481565b60065481565b60055481565b60035481565b60045481565b6000806000806000806000600454421115151561038d57600080fd5b60649550600554421115156103b657678ac7230489e8000093506101f4955061012c94506103e4565b600554421180156103c957506006544211155b156103e3576801a055690d9db80000935060c89550609694505b5b600254841080156103f757506006544211155b15610400578495505b836002541080156104145750838860025401115b15610455578388600254010391506002548403905061044e610436838761068e565b610440838961068e565b6102a690919063ffffffff16565b9250610462565b61045f888761068e565b92505b829650505050505050919050565b600080600454421115151561048457600080fd5b6000341415151561049457600080fd5b61049d34610371565b90506104b4346002546102a690919063ffffffff16565b6002819055506000809054906101000a900473ffffffffffffffffffffffffffffffffffffffff1673ffffffffffffffffffffffffffffffffffffffff1663a51a868233836040518363ffffffff167c0100000000000000000000000000000000000000000000000000000000028152600401808373ffffffffffffffffffffffffffffffffffffffff1673ffffffffffffffffffffffffffffffffffffffff16815260200182815260200192505050602060405180830381600087803b15801561057e57600080fd5b505af1158015610592573d6000803e3d6000fd5b505050506040513d60208110156105a857600080fd5b8101908080519060200190929190505050507f76a32dce3ca886d7dda77ccb2d08e47f9cd441cdf4a84beb3a1d74edb7acafc1303334604051808473ffffffffffffffffffffffffffffffffffffffff1673ffffffffffffffffffffffffffffffffffffffff1681526020018373ffffffffffffffffffffffffffffffffffffffff1673ffffffffffffffffffffffffffffffffffffffff168152602001828152602001935050505060405180910390a16106616102c2565b600191505090565b6000809054906101000a900473ffffffffffffffffffffffffffffffffffffffff1681565b60006106a382846106ab90919063ffffffff16565b905092915050565b6000808314156106be57600090506106dd565b81830290508183828115156106cf57fe5b041415156106d957fe5b8090505b929150505600a165627a7a72305820a7b4db5dd3bae6934305a698ad78c2207de1f09f3d2f75696e8399968903cb400029",
  "source": "pragma solidity ^0.4.21;\n\nimport '../node_modules/zeppelin-solidity/contracts/math/SafeMath.sol';\nimport './interfaces/ILimeToken.sol';\n\ncontract LimeCrowdsale {\n        using SafeMath for uint256;\n\n\tevent TokensBought(address from, address  to, uint256 amount);\n\n\tILimeToken public token;\n\n\taddress public wallet;\n\tuint256 public totalWeiRaised;\n\n\t// start and end timestamps where investments are allowed (both inclusive)\n\tuint256 public saleStart;\n\tuint256 public saleEnd;\n\n\t// end timestamps for the two phases where rates for the investments are changed (both inclusive)\n\tuint256 public firstPhaseEnd;\n\tuint256 public secondPhaseEnd;\n\n\tconstructor (address _token, address _wallet) public {\n\t        //contract cannot assume the balance is zero upon creation\n\t\trequire(address(this).balance == 0);\n\t\trequire(_wallet != address(0));\n\n\t\twallet = _wallet;\n\n\t\tsaleStart = now;\n\t\tsaleEnd = saleStart + 30 days;\n\n\t\tfirstPhaseEnd = saleStart + 7 days;\n\t\tsecondPhaseEnd = firstPhaseEnd + 7 days;\n\n\t\ttoken = ILimeToken(_token);\t\n\t}\n\n        function () external payable {\n\t\ttotalWeiRaised = totalWeiRaised.add(msg.value);\n\t\t_forwardFunds();\n\t}\n\n        modifier beforeSaleEnd() {\n\t\trequire(now <= saleEnd);\n\t\t_;\n\t}\n\n\tfunction buyTokens() public payable beforeSaleEnd returns (bool) {\n\t\trequire(msg.value != 0);\n\n\t\tuint256 tokenAmount = getTokenAmount(msg.value);\n\n\t\ttotalWeiRaised = totalWeiRaised.add(msg.value);\n\n\t\ttoken.saleTransfer(msg.sender, tokenAmount);\n\n\t\temit TokensBought(address(this), msg.sender, msg.value);\n\n\t\t_forwardFunds();\n\n\t\treturn true;\n\t}\n\n        function getTokenAmount(uint256 _weiAmount) public view beforeSaleEnd returns(uint256) {\n\t\tuint256 currentPhaseRate = 100;\n\t\tuint256 nextPhaseRate;\n\t\tuint256 phaseEtherCap;\n\n\t\tuint256 tokensAmount;\n\n\t\tif(now <= firstPhaseEnd){\n\t\t\tphaseEtherCap = 10 ether;\n\t\t\tcurrentPhaseRate = 500;\n\t\t\tnextPhaseRate = 300;\n\t\t} else if (now > firstPhaseEnd && now <= secondPhaseEnd) {\n\t\t\tphaseEtherCap = 30 ether;\n\t\t\tcurrentPhaseRate = 200;\n\t\t\tnextPhaseRate = 150;\n\t\t}\n\n\t\tif(phaseEtherCap < totalWeiRaised && now <= secondPhaseEnd){\n\t\t        currentPhaseRate = nextPhaseRate;\n\t\t}\n\n\t\t// case when wei amount should be split and converted between two phases using different rate for each one\n\t\tif(totalWeiRaised < phaseEtherCap && totalWeiRaised + _weiAmount > phaseEtherCap){\n\t\t\tuint256 nextPhaseWei = (totalWeiRaised +  _weiAmount) - phaseEtherCap;\n\t\t\tuint256 currentPhaseWei = phaseEtherCap - totalWeiRaised;\n\t\t\ttokensAmount = _calculateTokenAmount(currentPhaseWei, currentPhaseRate).add(_calculateTokenAmount(nextPhaseWei, nextPhaseRate));\n\t\t} else {\n\t\t\ttokensAmount = _calculateTokenAmount(_weiAmount, currentPhaseRate);\n\t\t}\n\n\t\treturn tokensAmount;\n\t}\n\n        function _calculateTokenAmount(uint256 _weiAmount, uint256 _rate) private pure returns (uint256) {\n\t        return _weiAmount.mul(_rate);\n\t}\n\n\tfunction _forwardFunds() internal {\n\t\twallet.transfer(msg.value);\n\t}\n}\n",
  "sourcePath": "/root/Desktop/contracts_deploy/ICO/contracts/LimeCrowdsale.sol",
  "compiler": {
    "name": "solc",
    "version": "0.4.23+commit.124ca40d.Emscripten.clang"
  },
  "schemaVersion": "2.0.0",
  "updatedAt": "2018-05-13T13:37:30.588Z"
}